:060000000A128A1100291A
:10000800F000030EF1000B184821031383120B199B
:0C0018005021710E8300F00E700E0900E4
:100200001E210A21112137213F2103138312572177
:100210007C210729031383160F140F178F160F1253
:100220000800031383168112811101158114011432
:1002300003138312D93081000B11080003178316B2
:10024000880189010313831606148614850187012A
:1002500088018113151495140313831285018601F7
:1002600087018801A101A201A301A40108000313D1
:1002700083128B178B150B108B160B1108000313B1
:100280008316161496140313831206080B10080025
:1002900003138312061C850A861C85030B100800B5
:1002A00003138312D93081000B1161210800230848
:1002B0000022A50022080022A60021080022A70093
:1002C000080008108810081124187629A41870292D
:1002D00024196A292508870008152411A414080088
:1002E000260887008814A410241408002708870013
:1002F0000814241024150800A101A201A301050877
:10030000A0006430A002A10A03188129A10364306F
:10031000A0078B2108000A30A002A20A03188B292B
:10032000A2030A30A007952108000130A002A30A09
:0C03300003189529A3030130A007080062
:100400008A018A140F3982073F3406345B344F3433
:1004100066346D347D3407347F346F3477347C3404
:0804200039345E347934713483
:04400E00D420FF3F7C
:00000001FF
